:100000000C942A000C9447000C9447000C94470071
:100010000C9447000C9447000C9447000C94470044
:100020000C9447000C9447000C9447000C94470034
:100030000C9447000C9447000C9447000C94470024
:100040000C9447000C9447000C9447000C94470014
:100050000C94470011241FBECFE5D8E0DEBFCDBF12
:1000600014E0A0E6B0E0E0EFF7E102C005900D92E9
:10007000A836B107D9F724E0A8E6B4E001C01D9284
:10008000AA36B207E1F70E9449000C94F60B0C94D3
:1000900000000E9470030E9450000E941203FBCFD8
:1000A00080E00E94660AC99744F080916000813325
:1000B00021F485B3806485BB089585B38F7B85BBB0
:1000C0000895CF93DF93D82F81111BC081E690E074
:1000D0000E94EF0A0E94EB0AC82F0E945000C03312
:1000E00019F0C13329F008C080E3809360000AC092
:1000F00081E38093600006C08EE890E00E94EF0AE2
:1001000001C0C0E0D130B1F581E00E94BC0980E8B7
:100110000E94BC098AE790E00E943A0A05C00E944A
:100120004109C82F0E945000CC23C9F3C03319F0F5
:10013000C13339F00CC080E3809360000E9450000E
:1001400019C081E3809360000E94500013C081E0D9
:100150000E94BC0980E80E94BC098DE890E00E94E2
:100160003A0A2FE986E891E0215080409040E1F77B
:1001700000C00000DF91CF910895CF93DF93D82F77
:10018000811118C08BE990E00E94EF0A0E94EB0AEF
:10019000C82F0E945000C03319F487E18CBF0BC0F8
:1001A000C13319F48FE18CBF06C08BE993E00E9444
:1001B000EF0A01C0C0E0D13079F581E00E94BC09AE
:1001C00080E80E94BC098BEA90E00E943A0A05C0D0
:1001D0000E944109C82F0E945000CC23C9F3C033AC
:1001E00019F487E18CBF18C0C13319F48FE18CBFBB
:1001F00013C081E00E94BC0980E80E94BC098DE820
:1002000090E00E943A0A2FE38DE093E02150804075
:100210009040E1F700C00000DF91CF91089581B3D5
:10022000846081BB81B3886081BB81B3806181BB05
:1002300081B3806281BB81B3806481BB0895CF9319
:10024000DF93D82F81112FC08BEB90E00E94EF0A33
:100250000E94EB0AC82F0E945000C33399F028F483
:10026000C13341F0C23351F019C0C43379F0C53302
:1002700089F014C082B3846082BB16C082B38860E8
:1002800082BB12C082B3806182BB0EC082B3806227
:1002900082BB0AC082B3806482BB06C08BE993E054
:1002A0000E94EF0A01C0C0E0D13009F046C081E0F1
:1002B0000E94BC0980E80E94BC0984EE90E00E9484
:1002C0003A0A05C00E944109C82F0E945000CC2361
:1002D000C9F3C33399F028F4C13341F0C23351F06C
:1002E00019C0C43379F0C53389F014C082B3846077
:1002F00082BB23C082B3886082BB1FC082B380618F
:1003000082BB1BC082B3806282BB17C082B3806491
:1003100082BB13C081E00E94BC0980E80E94BC0936
:100320008DE890E00E943A0A2FE986E891E021509A
:1003300080409040E1F700C00000DF91CF91089528
:10034000CF93DF93D82F81112FC08BEB90E00E94C9
:10035000EF0A0E94EB0AC82F0E945000C33399F0A5
:1003600028F4C13341F0C23351F019C0C43379F0DD
:10037000C53389F014C082B38B7F82BB16C082B3B1
:10038000877F82BB12C082B38F7E82BB0EC082B3D6
:100390008F7D82BB0AC082B38F7B82BB06C08BE994
:1003A00093E00E94EF0A01C0C0E0D13009F046C0DE
:1003B00081E00E94BC0980E80E94BC0984EE90E0C4
:1003C0000E943A0A05C00E944109C82F0E945000AD
:1003D000CC23C9F3C33399F028F4C13341F0C233BD
:1003E00051F019C0C43379F0C53389F014C082B319
:1003F0008B7F82BB23C082B3877F82BB1FC082B347
:100400008F7E82BB1BC082B38F7D82BB17C082B33D
:100410008F7B82BB13C081E00E94BC0980E80E94F0
:10042000BC098DE890E00E943A0A2FE986E891E045
:10043000215080409040E1F700C00000DF91CF9153
:100440000895CF93DF93D82F81111BC083EF90E0E5
:100450000E94EF0A0E94EB0AC82F0E945000C1338D
:1004600019F0C23329F008C080E00E941F010AC0C1
:1004700080E00E94A00106C08BE993E00E94EF0A91
:1004800001C0C0E0D130E1F581E00E94BC0980E804
:100490000E94BC0984E191E00E943A0A05C00E94D2
:1004A0004109C82F0E945000CC23C9F3C13319F071
:1004B000C23329F008C081E00E941F0121C081E001
:1004C0000E94A0011DC081E00E94BC0980E80E943A
:1004D000BC098EE890E00E943A0A2FE38DE093E099
:1004E000215080409040E1F700C0000081E00E9470
:1004F000BC0980E80E94BC0980E291E00E943A0AAF
:10050000DF91CF910895CF93DF93D82F0E945000B1
:10051000D11135C08CE291E00E94EF0A0E94EB0AF3
:10052000C82F0E945000C13381F018F4C03331F05D
:1005300021C0C23389F0C333B1F01CC06AE077ED4B
:1005400083E29CE30E94AA0A1BC063EC75EF88EA71
:100550009EE30E94AA0A14C063EC75EF88E29FE351
:100560000E94AA0A0DC060E070E080E89FE30E944C
:10057000AA0A06C08EE890E00E94EF0A01C0C0E01F
:10058000D13009F04CC081E00E94BC0980E80E9493
:10059000BC0989E491E00E943A0A05C00E94410921
:1005A000C82F0E945000CC23C9F3C13381F018F446
:1005B000C03331F021C0C23389F0C333B1F01CC065
:1005C0006AE077ED83E29CE30E94AA0A28C063EC0C
:1005D00075EF88EA9EE30E94AA0A21C063EC75EFDA
:1005E00088E29FE30E94AA0A1AC060E070E080E8F7
:1005F0009FE30E94AA0A13C081E00E94BC0980E820
:100600000E94BC098EE890E00E943A0A2FE986E831
:1006100091E0215080409040E1F700C00000DF9160
:10062000CF910895CF938091680481110EC080917D
:100630006904811105C083E591E00E94EF0A09C0B9
:1006400086E791E00E94EF0A04C080EB91E00E94EF
:10065000EF0A0E94EB0AC82F0E945000C23339F003
:10066000C33351F0C03369F40E940B070EC080E021
:1006700090E00E943D0809C080E090E00E9492074F
:1006800004C087EF91E00E94EF0A8EE092E00E94A2
:100690003A0A80EC0E94BC098CE192E00E943A0A7E
:1006A0000E944109C82F0E945000C23319F0C33381
:1006B00031F00AC081E090E00E943D080FC081E067
:1006C00090E00E9492070AC081E00E94BC0980E885
:1006D0000E94BC098BE993E00E943A0ACF910895E9
:1006E0000E94EA090E9410098CE00E94CD0A0E9433
:1006F000500A0E94950A0E94B40A0E94CC080E94E7
:100700000F010E948A0708950F931F93CF93DF93E1
:10071000182F811129C089E292E00E94EF0A0E94FD
:10072000EB0AC82FD0E01DC0C23349F018F4C03323
:10073000B9F011C0C33339F0C43349F00CC0812F74
:100740000E9421020EC0812F0E9483020AC0812FC5
:100750000E94610006C087EF91E00E94EF0A01C08D
:10076000D0E3D03309F702C0D0E0C0E0113009F087
:10077000FAC081E00E94BC0980E80E94BC0980E8C0
:1007800092E00E943A0A80EC0E94BC0981E992E062
:100790000E943A0A2FE78AE196E02150804090407B
:1007A000E1F700C0000081E00E94BC0980E80E94DF
:1007B000BC098EE692E00E943A0A00E0D1C00E9495
:1007C0004109C82F0E945000CC23C9F3C01709F477
:1007D000C7C0C23359F020F4C03309F4BFC084C08D
:1007E000C33371F1C43309F455C07EC0812F0E9418
:1007F000210281E00E94BC0980E80E94BC0980E8D7
:1008000092E00E943A0A80EC0E94BC0981E992E0E1
:100810000E943A0A2FE78AE196E0215080409040FA
:10082000E1F700C0000081E00E94BC0980E80E945E
:10083000BC098EE692E00E943A0A00E0C0E090C057
:10084000812F0E94830281E00E94BC0980E80E94FF
:10085000BC0980E892E00E943A0A80EC0E94BC0940
:1008600081E992E00E943A0A2FE78AE196E021505E
:1008700080409040E1F700C0000081E00E94BC0988
:1008800080E80E94BC098EE692E00E943A0A00E0ED
:10089000C0E066C0812F0E94610081E00E94BC0917
:1008A00080E80E94BC0980E892E00E943A0A80EC4D
:1008B0000E94BC0981E992E00E943A0A2FE78AE18E
:1008C00096E0215080409040E1F700C0000081E0B8
:1008D0000E94BC0980E80E94BC098EE692E00E945A
:1008E0003A0A00E0C0E03CC081E00E94BC0980E818
:1008F0000E94BC098AE993E00E943A0A2FE38DE046
:1009000093E0215080409040E1F700C0000081E07A
:100910000E94BC0980E80E94BC0980E892E00E9425
:100920003A0A80EC0E94BC0981E992E00E943A0AEE
:100930002FE78AE196E0215080409040E1F700C027
:10094000000081E00E94BC0980E80E94BC098EE69C
:1009500092E00E943A0A00E0C0E002C00C2FD0E30F
:10096000D03309F031CF0E941203DF91CF911F9154
:100970000F9108950F931F93CF93DF93CDB7DEB7F9
:100980002C970FB6F894DEBF0FBECDBF8DE992E075
:100990000E94EF0A00E010E00DC00E94EB0A8033D5
:1009A00061F0E1E0F0E0EC0FFD1FE00FF11F80834C
:1009B0000F5F1F4F0830110584F386EC92E00E9410
:1009C000EF0A00E010E00BC00E94EB0AE9E0F0E063
:1009D000EC0FFD1FE00FF11F80830F5F1F4F0330EF
:1009E000110594F300E010E01DC087E893E1019742
:1009F000F1F700C00000E1E0F0E0EC0FFD1FE00FB8
:100A0000F11F60818091690490E00496880F991F1E
:100A1000880F991F880F991F800F911F0E94CF0880
:100A20000F5F1F4F0830110504F300E010E01DC0F8
:100A300087E893E10197F1F700C00000E9E0F0E0FA
:100A4000EC0FFD1FE00FF11F60818091690490E0C1
:100A50000596880F991F880F991F880F991F800F7F
:100A6000911F0E94CF080F5F1F4F0330110504F341
:100A7000809169048F5F8093690484EE92E00E9404
:100A8000EF0A81E00E9484032C960FB6F894DEBF33
:100A90000FBECDBFDF91CF911F910F9108950F939E
:100AA0001F93CF93DF938111B1C1182F80916904F7
:100AB0008823A9F1D1E0C0E069C080EF92E00E94F4
:100AC000EF0A0E94EB0AC82F0E945000C23381F047
:100AD00028F4C03311F1C13339F01AC0C43381F0A6
:100AE00058F0C53389F014C0812F0E94BD0019C091
:100AF000812F0E94210215C0812F0E94830211C004
:100B0000812F0E9461000DC0812F90E00E94BA04E5
:100B100087EF91E00E94EF0A04C0D0E302C0D1E069
:100B2000C0E0D03351F634C080EF92E00E94EF0A6B
:100B30000E94EB0AC82F0E945000C23381F028F4B3
:100B4000C03319F1C13339F01BC0C43381F058F000
:100B5000C53389F015C0812F0E94BD0017C0812FB9
:100B60000E94210213C0812F0E9483020FC0812F97
:100B70000E9461000BC0812F90E00E94BA0406C061
:100B800087EF91E00E94EF0A01C0D0E3D03361F615
:100B9000113009F039C181E00E94BC0980E80E944F
:100BA000BC098AE693E00E943A0A80EC0E94BC09E4
:100BB00088E793E00E943A0A2FE78AE196E0215005
:100BC00080409040E1F700C0000081E00E94BC0935
:100BD00080E80E94BC0988E893E00E943A0A2FE36B
:100BE0008DE093E0215080409040E1F700C000008C
:100BF00000E007C10E944109C82F0E945000CC2389
:100C0000C9F3C01709F4FDC0C233C1F130F4C033D9
:100C100009F4F5C0C13341F0AFC0C33309F458C083
:100C2000C43309F47FC0A8C0812F0E94BD0081E0B9
:100C30000E94BC0980E80E94BC098AE693E00E94F9
:100C40003A0A80EC0E94BC0988E793E00E943A0AC5
:100C50002FE78AE196E0215080409040E1F700C004
:100C6000000081E00E94BC0980E80E94BC0988E87D
:100C700093E00E943A0A00E0C0E0C3C0812F0E94C6
:100C8000210281E00E94BC0980E80E94BC098AE63A
:100C900093E00E943A0A80EC0E94BC0988E793E046
:100CA0000E943A0A2FE78AE196E021508040904066
:100CB000E1F700C0000081E00E94BC0980E80E94CA
:100CC000BC0988E893E00E943A0A00E0C0E099C0BD
:100CD000812F0E94830281E00E94BC0980E80E946B
:100CE000BC098AE693E00E943A0A80EC0E94BC09A3
:100CF00088E793E00E943A0A2FE78AE196E02150C4
:100D000080409040E1F700C0000081E00E94BC09F3
:100D100080E80E94BC0988E893E00E943A0A00E05B
:100D2000C0E06FC0812F0E94610081E00E94BC0979
:100D300080E80E94BC098AE693E00E943A0A80ECAF
:100D40000E94BC0988E793E00E943A0A2FE78AE1F3
:100D500096E0215080409040E1F700C0000081E023
:100D60000E94BC0980E80E94BC0988E893E00E94C8
:100D70003A0A00E0C0E045C081E00E94BC0980E87A
:100D80000E94BC0989E993E00E943A0A2FE38DE0B2
:100D900093E0215080409040E1F700C0000081E0E6
:100DA0000E94BC0980E80E94BC098BE693E00E9487
:100DB0003A0A80EC0E94BC0988E793E00E943A0A54
:100DC0002FE287E595E0215080409040E1F700C098
:100DD000000081E00E94BC0980E80E94BC0988E80C
:100DE00093E00E943A0A2FE287E595E02150804087
:100DF0009040E1F700C0000000E0C0E002C00C2F0E
:100E0000D0E3D03309F0FBCE0E941203DF91CF91E3
:100E10001F910F9108950F931F93CF93DF93CDB739
:100E2000DEB72C970FB6F894DEBF0FBECDBF8DE9AD
:100E300092E00E94EF0A00E010E00DC00E94EB0A71
:100E4000803361F0E1E0F0E0EC0FFD1FE00FF11FF7
:100E500080830F5F1F4F0830110584F386EC92E00A
:100E60000E94EF0A00E010E00BC00E94EB0AE9E0EC
:100E7000F0E0EC0FFD1FE00FF11F80830F5F1F4FAD
:100E80000330110594F300E010E013C087E893E10C
:100E90000197F1F700C00000E1E0F0E0EC0FFD1F6A
:100EA000E00FF11F6081C80142960E94CF080F5FDA
:100EB0001F4F0830110554F300E010E013C087E81D
:100EC00093E10197F1F700C00000E9E0F0E0EC0FDA
:100ED000FD1FE00FF11F6081C8014A960E94CF08F4
:100EE0000F5F1F4F0330110554F381E080936804B6
:100EF00084EE92E00E94EF0A80E00E944F052C965B
:100F00000FB6F894DEBF0FBECDBFDF91CF911F911A
:100F10000F91089584B3806884BB089585B3806879
:100F200085BBFCCFCF92DF92EF92FF920F931F937E
:100F3000CF93DF93CDB7DEB72C970FB6F894DEBF13
:100F40000FBECDBF88EA93E00E94EF0A00E010E0F8
:100F50000CC087E893E10197F1F700C00000C801D9
:100F600080960E94ED080F5F1F4F083011058CF32B
:100F700000E010E01DC087E893E10197F1F700C0A1
:100F800000008091690490E00496880F991F880FF3
:100F9000991F880F991F800F911F0E94ED08E9E0AB
:100FA000F0E0EC0FFD1FE00FF11F80830F5F1F4F7C
:100FB0000330110504F3C12CD12CE12CF12C40C0DD
:100FC0000E94EB0AE9E0F0E0EC0FFD1FE00FF11FDB
:100FD0009081891304C09FEFC91AD90A02C0C12C9D
:100FE000D12C0F5F1F4F02C000E010E0033011054D
:100FF0003CF383E0C816D10441F488EC93E00E94EE
:10100000EF0A81E00E9484031BC09FEFE91AF90AEE
:1010100081E0E816F10421F481ED93E00E94EF0AEB
:1010200092E0E916F10421F484EF93E00E94EF0AC4
:1010300083E0E816F10421F486E194E00E94EF0ACF
:1010400093E0E916F10481F683E0E816F10431F447
:1010500083E394E00E94EF0A0E948E072C960FB65D
:10106000F894DEBF0FBECDBFDF91CF911F910F91DE
:10107000FF90EF90DF90CF900895CF92DF92EF92A4
:10108000FF920F931F93CF93DF93CDB7DEB72C97CB
:101090000FB6F894DEBF0FBECDBF88EA93E00E9482
:1010A000EF0A00E010E013C087E893E10197F1F741
:1010B00000C00000C8014A960E94ED08E9E0F0E097
:1010C000EC0FFD1FE00FF11F80830F5F1F4F0330F8
:1010D000110554F3C12CD12CE12CF12C40C00E94FD
:1010E000EB0AE9E0F0E0EC0FFD1FE00FF11F90814B
:1010F000891304C09FEFC91AD90A02C0C12CD12C90
:101100000F5F1F4F02C000E010E0033011053CF3F9
:1011100083E0C816D10441F488EC93E00E94EF0A02
:1011200080E00E944F051BC09FEFE91AF90A81E099
:10113000E816F10421F481ED93E00E94EF0A92E0B9
:10114000E916F10421F484EF93E00E94EF0A83E0B2
:10115000E816F10421F486E194E00E94EF0A93E09E
:10116000E916F10481F683E0E816F10431F483E333
:1011700094E00E94EF0A0E948E072C960FB6F89416
:10118000DEBF0FBECDBFDF91CF911F910F91FF90BA
:10119000EF90DF90CF9008950E94770A08951F93F3
:1011A000CF93DF93EC01162F0E947E0ACE01882791
:1011B0009770880F892F881F990B9195806A0E94DC
:1011C000870A8C2F0E94870A812F0E94870A0E941B
:1011D000840ADF91CF911F9108950F931F93CF93AE
:1011E000DF938C010E947E0AE801CC27D770CC0FD8
:1011F000CD2FCC1FDD0BD1958C2F806A0E94870AE2
:10120000802F0E94870A0E947E0A8C2F816A0E948A
:10121000870A0E948E0ADF91CF911F910F91089546
:1012200084B3846084BB84B3886084BB84B38061EE
:1012300084BB84B3806284BB87B38E7F87BB87B354
:101240008D7F87BB87B38B7F87BB87B38F7787BB48
:1012500085B3846085BB85B3886085BB85B38061B9
:1012600085BB85B3806285BB88B3816088BB88B34A
:10127000826088BB88B3846088BB88B3806888BB81
:10128000089585B38B7F85BBB09904C0B09BFECF1A
:1012900087E313C0B19904C0B19BFECF88E30DC0B2
:1012A000B29904C0B29BFECF89E307C0B79904C0CE
:1012B000B79BFECF8FE201C080E095B3946095BBF1
:1012C000000095B3977F95BBB09904C0B09BFECF4B
:1012D00084E311C0B19904C0B19BFECF85E30BC07C
:1012E000B29904C0B29BFECF86E305C0B79903C094
:1012F000B79BFECF8AE295B3986095BB000095B38B
:101300009F7E95BBB09904C0B09BFECF81E311C016
:10131000B19904C0B19BFECF82E30BC0B29904C067
:10132000B29BFECF83E305C0B79903C0B79BFECF46
:101330008DE295B3906195BB000095B39F7D95BB01
:10134000B09904C0B09BFECF83E611C0B19904C030
:10135000B19BFECF80E30BC0B29904C0B29BFECF1D
:101360008DE305C0B79903C0B79BFECF8BE295B361
:10137000906295BB000008959BB39F70282F207F3B
:10138000922B9BBB9BB39D7F9BBB9BB39B7F9BBBCC
:1013900033E03A95F1F700009BB398609BBB93E074
:1013A0009A95F1F700009BB3977F9BBB2BB330E17D
:1013B000839FC0011124922F9F70892B8BBB8BB30D
:1013C00088608BBB83E08A95F1F700008BB3877F41
:1013D0008BBB08958AB382608ABB8AB384608ABB60
:1013E0008AB388608ABB8AB3806F8ABB82E00E941E
:1013F000BC0988E20E94BC098CE00E94BC0986E01E
:101400000E94BC0981E00E94BC0981EE94E0019732
:10141000F1F700C0000008959BB39F70282F207F34
:10142000922B9BBB9BB392609BBB9BB39B7F9BBB55
:1014300033E03A95F1F700009BB398609BBB93E0D3
:101440009A95F1F700009BB3977F9BBB2BB330E1DC
:10145000839FC0011124922F9F70892B8BBB8BB36C
:1014600088608BBB83E08A95F1F700008BB3877FA0
:101470008BBB08950F931F93CF93DF938C01C0E034
:10148000D0E003C00E940C0A2196F801EC0FFD1F6A
:1014900080818111F7CFDF91CF911F910F91089536
:1014A0008AB38E7F8ABB86B1806886B987B1806433
:1014B00087B986B1816086B986B1826086B984B306
:1014C000806484BB85B3806485BB089597B1907EAA
:1014D000892B87B986B1806486B93499FECF24B14F
:1014E00085B190E0982F8827820F911D089582E0A2
:1014F00080B911B882B984E086BF089584EA86BFB6
:1015000006B607FEFDCF089584E986BF089583B926
:1015100084E886BF06B607FEFDCF089584E886BF3F
:1015200006B607FEFDCF83B1089587B3886087BBF9
:1015300083B7806483BF83B7886083BF83B78062CB
:1015400083BF83B7816083BF83B7826083BF87E136
:101550008CBF089520E030E04FE753E40E94610B18
:101560000E94090B63BD089581B3806881BB85B576
:10157000806485BD85B5886085BD85B5806285BD83
:1015800085B5816085BD85B5826085BD6AE077EDF2
:1015900083E29CE30E94AA0A089510BC89B980B531
:1015A0008F7780BD8AB188608AB98AB180618AB933
:1015B00080B5806880BD80B58F7B80BD80B582603E
:1015C00080BD80B5846080BD08955D9BFECF8CB9E1
:1015D0005E9BFECF08955F9BFECF8CB108950F9365
:1015E0001F93CF93DF938C01C0E0D0E007C00E942F
:1015F000E50A219686E08A95F1F700C0F801EC0F24
:10160000FD1F80818111F3CFDF91CF911F910F9149
:1016100008950E94400B88F09F5798F0B92F9927A2
:10162000B751B0F0E1F0660F771F881F991F1AF0CD
:10163000BA95C9F714C0B13091F00E945A0BB1E0CD
:1016400008950C945A0B672F782F8827B85F39F0CC
:10165000B93FCCF3869577956795B395D9F73EF466
:1016600090958095709561957F4F8F4F9F4F08950E
:1016700057FD9058440F551F59F05F3F71F0479543
:10168000880F97FB991F61F09F3F79F08795089528
:10169000121613061406551FF2CF4695F1DF08C047
:1016A000161617061806991FF1CF86957105610564
:1016B00008940895E894BB2766277727CB0197F90C
:1016C00008950E94740B0C94E50B0E94D70B38F020
:1016D0000E94DE0B20F0952311F00C94CE0B0C949D
:1016E000D40B11240C945B0B0E94380B70F3959F64
:1016F000C1F3950F50E0551F629FF001729FBB2709
:10170000F00DB11D639FAA27F00DB11DAA1F649FA4
:101710006627B00DA11D661F829F2227B00DA11D57
:10172000621F739FB00DA11D621F839FA00D611DDD
:10173000221F749F3327A00D611D231F849F600DFE
:10174000211D822F762F6A2F11249F5750409AF027
:10175000F1F088234AF0EE0FFF1FBB1F661F771FB3
:10176000881F91505040A9F79E3F510580F00C947E
:10177000CE0B0C945B0B5F3FE4F3983ED4F386955D
:1017800077956795B795F795E7959F5FC1F7FE2B1E
:10179000880F911D9695879597F9089597F99F67FA
:1017A00080E870E060E008959FEF80EC08950024E9
:1017B0000A941616170618060906089500240A94B6
:1017C00012161306140605060895092E0394000C3C
:1017D00011F4882352F0BB0F40F4BF2B11F460FFCB
:1017E00004C06F5F7F4F8F4F9F4F0895F894FFCFD6
:1017F00030302D6465616374697661746520312DC4
:101800006163746976617465200020302D646561C0
:101810006374697620312D61637469760020777274
:101820006F6E672063686F69636500312D6F706547
:101830006E20302D636C6F7365200020312D6F702A
:10184000656E20302D636C6F736500506C6561733D
:101850006520656E74657220746865206C6564200F
:101860006E756D6265722066726F6D203120746FC7
:1018700020352000206C6564732066726F6D203106
:101880003A350020312D4163746976617465204CCE
:10189000656420322D6465616374697661746520C6
:1018A0006C65640020312D656E20322D64697300F3
:1018B00020312D656E20302D64697300456E74658E
:1018C00072206272696768746E657373206E756DDD
:1018D00062657220303A3320006C6576656C20308A
:1018E0003A330063686F6F736520746865206E75A6
:1018F0006D62657220302D746F20616464206164B4
:101900006D696E20200063686F6F73652074686571
:10191000206E756D62657220302D746F2061646475
:101920002061646D696E20322D746F206C6F6720AA
:10193000696E20746F2075736572206D6F64650029
:1019400063686F6F736520746865206E756D62657E
:101950007220322D746F206C6F67696E20746F2057
:1019600061646D696E206D6F646520332D20746F26
:10197000206C6F6720696E20746F2075736572200C
:101980006D6F646520200057726F6E672063686F0B
:101990006963652054727920616761696E00322D38
:1019A0006C6F67696E2061646D696E00332D6C6FBA
:1019B00067696E20757365720043686F6F73652089
:1019C0006F7074696F6E20796F752077616E742007
:1019D000746F20636F6E74726F6C2032202D4C65B3
:1019E000642020332D44696D6D696E6720342D416C
:1019F000697220436F6E646974696F6E657220301E
:101A00002D736B69702055736572206D6F6465006E
:101A100020322D4C656420332D44696D6D696E67ED
:101A20000020342D41697220436F6E6400456E744E
:101A30006572204E616D6520776974682030206181
:101A4000742074686520656E64206F662074686514
:101A5000206E616D6500456E746572205061737310
:101A6000776F7264207468726565206E756D62654B
:101A70007273200064617461207361766564200074
:101A800043686F6F7365206E756D626572206F704D
:101A900065726174696F6E20796F752077616E74FD
:101AA00020746F20636F6E74726F6C20312D446FE1
:101AB0006F7220322D4C65642020332D44696D6D8A
:101AC000696E6720342D41697220436F6E646974BA
:101AD000696F6E657220352D746F206164642075A6
:101AE00073657220302D746F20636C6F73652041B5
:101AF000646D696E206D6F64650020312D646F6FB9
:101B00007220322D4C656400332D44696D6D696E11
:101B10006720342D4169720020302D736B6970206D
:101B200055736572206D6F6400202057726F6E6769
:101B30002063686F69636500456E74657220796F14
:101B400075722070617373776F7264202833206E12
:101B5000756D62657273290057656C636F6D6520E2
:101B60000057726F6E672050617373776F726420D5
:101B700072656D61696E696E6720322074696D658A
:101B80007320200057726F6E672050617373776FF8
:101B900072642072656D61696E696E6720312074B0
:101BA000696D6520200057726F6E672050617373F6
:101BB000776F7264206C617374206368616E636513
:101BC000202000596F7520456E746572656420573A
:101BD000726F6E672070617373776F72642E20501E
:101BE0006C65617365205265736574207468652047
:081BF00053797374656D000068
:00000001FF
